{
  "_format": "hh-sol-artifact-1",
  "contractName": "SimpleBetting",
  "sourceName": "contracts/SimpleBetting.sol",
  "abi": [
    {
      "inputs": [
        {
          "internalType": "string",
          "name": "betId",
          "type": "string"
        },
        {
          "internalType": "address",
          "name": "mod",
          "type": "address"
        },
        {
          "internalType": "uint256",
          "name": "betAmount",
          "type": "uint256"
        }
      ],
      "name": "betmake",
      "outputs": [],
      "stateMutability": "nonpayable",
      "type": "function"
    },
    {
      "inputs": [
        {
          "internalType": "string",
          "name": "",
          "type": "string"
        }
      ],
      "name": "bets",
      "outputs": [
        {
          "internalType": "string",
          "name": "betId",
          "type": "string"
        },
        {
          "internalType": "address",
          "name": "moderator",
          "type": "address"
        },
        {
          "internalType": "uint256",
          "name": "betAmount",
          "type": "uint256"
        },
        {
          "internalType": "uint256",
          "name": "totalPool",
          "type": "uint256"
        },
        {
          "internalType": "bool",
          "name": "isResolved",
          "type": "bool"
        }
      ],
      "stateMutability": "view",
      "type": "function"
    },
    {
      "inputs": [
        {
          "internalType": "string",
          "name": "betId",
          "type": "string"
        }
      ],
      "name": "getBet",
      "outputs": [
        {
          "internalType": "address",
          "name": "moderator",
          "type": "address"
        },
        {
          "internalType": "uint256",
          "name": "betAmount",
          "type": "uint256"
        },
        {
          "internalType": "uint256",
          "name": "totalPool",
          "type": "uint256"
        },
        {
          "internalType": "uint256",
          "name": "yesCount",
          "type": "uint256"
        },
        {
          "internalType": "uint256",
          "name": "noCount",
          "type": "uint256"
        },
        {
          "internalType": "bool",
          "name": "isResolved",
          "type": "bool"
        }
      ],
      "stateMutability": "view",
      "type": "function"
    },
    {
      "inputs": [
        {
          "internalType": "string",
          "name": "",
          "type": "string"
        },
        {
          "internalType": "address",
          "name": "",
          "type": "address"
        }
      ],
      "name": "hasVoted",
      "outputs": [
        {
          "internalType": "bool",
          "name": "",
          "type": "bool"
        }
      ],
      "stateMutability": "view",
      "type": "function"
    },
    {
      "inputs": [
        {
          "internalType": "string",
          "name": "betId",
          "type": "string"
        },
        {
          "internalType": "int8",
          "name": "winOption",
          "type": "int8"
        }
      ],
      "name": "release",
      "outputs": [],
      "stateMutability": "nonpayable",
      "type": "function"
    },
    {
      "inputs": [
        {
          "internalType": "string",
          "name": "betId",
          "type": "string"
        },
        {
          "internalType": "int8",
          "name": "option",
          "type": "int8"
        }
      ],
      "name": "vote",
      "outputs": [],
      "stateMutability": "payable",
      "type": "function"
    }
  ],
  "bytecode": "0x6080604052348015600f57600080fd5b506119118061001f6000396000f3fe6080604052600436106100555760003560e01c8063078d16001461005a57806307b47a3d1461009c5780637c1ddc2c146100c557806380f3d9d5146100ee5780639af06cd91461012f578063d7d516c31461016c575b600080fd5b34801561006657600080fd5b50610081600480360381019061007c9190610efa565b610188565b60405161009396959493929190610fb8565b60405180910390f35b3480156100a857600080fd5b506100c360048036038101906100be9190611052565b610426565b005b3480156100d157600080fd5b506100ec60048036038101906100e79190611106565b610713565b005b3480156100fa57600080fd5b5061011560048036038101906101109190610efa565b6108e3565b6040516101269594939291906111f4565b60405180910390f35b34801561013b57600080fd5b506101566004803603810190610151919061124e565b6109e4565b60405161016391906112aa565b60405180910390f35b61018660048036038101906101819190611052565b610a29565b005b600080600080600080600080886040516101a29190611301565b90815260200160405180910390206040518060e00160405290816000820180546101cb90611347565b80601f01602080910402602001604051908101604052809291908181526020018280546101f790611347565b80156102445780601f1061021957610100808354040283529160200191610244565b820191906000526020600020905b81548152906001019060200180831161022757829003601f168201915b505050505081526020016001820160009054906101000a900473ffffffffffffffffffffffffffffffffffffffff1673ffffffffffffffffffffffffffffffffffffffff1673ffffffffffffffffffffffffffffffffffffffff16815260200160028201548152602001600382015481526020016004820180548060200260200160405190810160405280929190818152602001828054801561033c57602002820191906000526020600020905b8160009054906101000a900473ffffffffffffffffffffffffffffffffffffffff1673ffffffffffffffffffffffffffffffffffffffff16815260200190600101908083116102f2575b50505050508152602001600582018054806020026020016040519081016040528092919081815260200182805480156103ca57602002820191906000526020600020905b8160009054906101000a900473ffffffffffffffffffffffffffffffffffffffff1673ffffffffffffffffffffffffffffffffffffffff1681526020019060010190808311610380575b505050505081526020016006820160009054906101000a900460ff16151515158152505090508060200151816040015182606001518360800151518460a00151518560c001519650965096509650965096505091939550919395565b600080836040516104379190611301565b908152602001604051809103902090508060010160009054906101000a900473ffffffffffffffffffffffffffffffffffffffff1673ffffffffffffffffffffffffffffffffffffffff163373ffffffffffffffffffffffffffffffffffffffff16146104d9576040517f08c379a00000000000000000000000000000000000000000000000000000000081526004016104d0906113c4565b60405180910390fd5b8060060160009054906101000a900460ff161561052b576040517f08c379a000000000000000000000000000000000000000000000000000000000815260040161052290611430565b60405180910390fd5b60018160060160006101000a81548160ff021916908315150217905550606060018360000b036105e557816004018054806020026020016040519081016040528092919081815260200182805480156105d957602002820191906000526020600020905b8160009054906101000a900473ffffffffffffffffffffffffffffffffffffffff1673ffffffffffffffffffffffffffffffffffffffff168152602001906001019080831161058f575b50505050509050610671565b8160050180548060200260200160405190810160405280929190818152602001828054801561066957602002820191906000526020600020905b8160009054906101000a900473ffffffffffffffffffffffffffffffffffffffff1673ffffffffffffffffffffffffffffffffffffffff168152602001906001019080831161061f575b505050505090505b60008151111561070d5760008151836003015461068e91906114ae565b905060005b825181101561070a578281815181106106af576106ae6114df565b5b602002602001015173ffffffffffffffffffffffffffffffffffffffff166108fc839081150290604051600060405180830381858888f193505050501580156106fc573d6000803e3d6000fd5b508080600101915050610693565b50505b50505050565b6040518060e001604052808481526020018373ffffffffffffffffffffffffffffffffffffffff16815260200182815260200160008152602001600067ffffffffffffffff81111561076857610767610dcf565b5b6040519080825280602002602001820160405280156107965781602001602082028036833780820191505090505b508152602001600067ffffffffffffffff8111156107b7576107b6610dcf565b5b6040519080825280602002602001820160405280156107e55781602001602082028036833780820191505090505b508152602001600015158152506000846040516108029190611301565b9081526020016040518091039020600082015181600001908161082591906116ba565b5060208201518160010160006101000a81548173ffffffffffffffffffffffffffffffffffffffff021916908373ffffffffffffffffffffffffffffffffffffffff1602179055506040820151816002015560608201518160030155608082015181600401908051906020019061089d929190610cf9565b5060a08201518160050190805190602001906108ba929190610cf9565b5060c08201518160060160006101000a81548160ff021916908315150217905550905050505050565b60008180516020810182018051848252602083016020850120818352809550505050505060009150905080600001805461091c90611347565b80601f016020809104026020016040519081016040528092919081815260200182805461094890611347565b80156109955780601f1061096a57610100808354040283529160200191610995565b820191906000526020600020905b81548152906001019060200180831161097857829003601f168201915b5050505050908060010160009054906101000a900473ffffffffffffffffffffffffffffffffffffffff16908060020154908060030154908060060160009054906101000a900460ff16905085565b6001828051602081018201805184825260208301602085012081835280955050505050506020528060005260406000206000915091509054906101000a900460ff1681565b60008083604051610a3a9190611301565b9081526020016040518091039020905080600201543414610a90576040517f08c379a0000000000000000000000000000000000000000000000000000000008152600401610a87906117d8565b60405180910390fd5b600183604051610aa09190611301565b908152602001604051809103902060003373ffffffffffffffffffffffffffffffffffffffff1673ffffffffffffffffffffffffffffffffffffffff16815260200190815260200160002060009054906101000a900460ff1615610b39576040517f08c379a0000000000000000000000000000000000000000000000000000000008152600401610b3090611844565b60405180910390fd5b8060060160009054906101000a900460ff1615610b8b576040517f08c379a0000000000000000000000000000000000000000000000000000000008152600401610b82906118b0565b60405180910390fd5b60018084604051610b9c9190611301565b908152602001604051809103902060003373ffffffffffffffffffffffffffffffffffffffff1673ffffffffffffffffffffffffffffffffffffffff16815260200190815260200160002060006101000a81548160ff02191690831515021790555034816003016000828254610c1291906118d0565b9250508190555060018260000b03610c8e5780600401339080600181540180825580915050600190039060005260206000200160009091909190916101000a81548173ffffffffffffffffffffffffffffffffffffffff021916908373ffffffffffffffffffffffffffffffffffffffff160217905550610cf4565b80600501339080600181540180825580915050600190039060005260206000200160009091909190916101000a81548173ffffffffffffffffffffffffffffffffffffffff021916908373ffffffffffffffffffffffffffffffffffffffff1602179055505b505050565b828054828255906000526020600020908101928215610d72579160200282015b82811115610d715782518260006101000a81548173ffffffffffffffffffffffffffffffffffffffff021916908373ffffffffffffffffffffffffffffffffffffffff16021790555091602001919060010190610d19565b5b509050610d7f9190610d83565b5090565b5b80821115610d9c576000816000905550600101610d84565b5090565b6000604051905090565b600080fd5b600080fd5b600080fd5b600080fd5b6000601f19601f8301169050919050565b7f4e487b7100000000000000000000000000000000000000000000000000000000600052604160045260246000fd5b610e0782610dbe565b810181811067ffffffffffffffff82111715610e2657610e25610dcf565b5b80604052505050565b6000610e39610da0565b9050610e458282610dfe565b919050565b600067ffffffffffffffff821115610e6557610e64610dcf565b5b610e6e82610dbe565b9050602081019050919050565b82818337600083830152505050565b6000610e9d610e9884610e4a565b610e2f565b905082815260208101848484011115610eb957610eb8610db9565b5b610ec4848285610e7b565b509392505050565b600082601f830112610ee157610ee0610db4565b5b8135610ef1848260208601610e8a565b91505092915050565b600060208284031215610f1057610f0f610daa565b5b600082013567ffffffffffffffff811115610f2e57610f2d610daf565b5b610f3a84828501610ecc565b91505092915050565b600073ffffffffffffffffffffffffffffffffffffffff82169050919050565b6000610f6e82610f43565b9050919050565b610f7e81610f63565b82525050565b6000819050919050565b610f9781610f84565b82525050565b60008115159050919050565b610fb281610f9d565b82525050565b600060c082019050610fcd6000830189610f75565b610fda6020830188610f8e565b610fe76040830187610f8e565b610ff46060830186610f8e565b6110016080830185610f8e565b61100e60a0830184610fa9565b979650505050505050565b60008160000b9050919050565b61102f81611019565b811461103a57600080fd5b50565b60008135905061104c81611026565b92915050565b6000806040838503121561106957611068610daa565b5b600083013567ffffffffffffffff81111561108757611086610daf565b5b61109385828601610ecc565b92505060206110a48582860161103d565b9150509250929050565b6110b781610f63565b81146110c257600080fd5b50565b6000813590506110d4816110ae565b92915050565b6110e381610f84565b81146110ee57600080fd5b50565b600081359050611100816110da565b92915050565b60008060006060848603121561111f5761111e610daa565b5b600084013567ffffffffffffffff81111561113d5761113c610daf565b5b61114986828701610ecc565b935050602061115a868287016110c5565b925050604061116b868287016110f1565b9150509250925092565b600081519050919050565b600082825260208201905092915050565b60005b838110156111af578082015181840152602081019050611194565b60008484015250505050565b60006111c682611175565b6111d08185611180565b93506111e0818560208601611191565b6111e981610dbe565b840191505092915050565b600060a082019050818103600083015261120e81886111bb565b905061121d6020830187610f75565b61122a6040830186610f8e565b6112376060830185610f8e565b6112446080830184610fa9565b9695505050505050565b6000806040838503121561126557611264610daa565b5b600083013567ffffffffffffffff81111561128357611282610daf565b5b61128f85828601610ecc565b92505060206112a0858286016110c5565b9150509250929050565b60006020820190506112bf6000830184610fa9565b92915050565b600081905092915050565b60006112db82611175565b6112e581856112c5565b93506112f5818560208601611191565b80840191505092915050565b600061130d82846112d0565b915081905092915050565b7f4e487b7100000000000000000000000000000000000000000000000000000000600052602260045260246000fd5b6000600282049050600182168061135f57607f821691505b60208210810361137257611371611318565b5b50919050565b7f4f6e6c79206d6f64657261746f722063616e2072656c65617365000000000000600082015250565b60006113ae601a83611180565b91506113b982611378565b602082019050919050565b600060208201905081810360008301526113dd816113a1565b9050919050565b7f416c7265616479207265736f6c76656400000000000000000000000000000000600082015250565b600061141a601083611180565b9150611425826113e4565b602082019050919050565b600060208201905081810360008301526114498161140d565b9050919050565b7f4e487b7100000000000000000000000000000000000000000000000000000000600052601260045260246000fd5b7f4e487b7100000000000000000000000000000000000000000000000000000000600052601160045260246000fd5b60006114b982610f84565b91506114c483610f84565b9250826114d4576114d3611450565b5b828204905092915050565b7f4e487b7100000000000000000000000000000000000000000000000000000000600052603260045260246000fd5b60008190508160005260206000209050919050565b60006020601f8301049050919050565b600082821b905092915050565b6000600883026115707fffffffffffffffffffffffffffffffffffffffffffffffffffffffffffffffff82611533565b61157a8683611533565b95508019841693508086168417925050509392505050565b6000819050919050565b60006115b76115b26115ad84610f84565b611592565b610f84565b9050919050565b6000819050919050565b6115d18361159c565b6115e56115dd826115be565b848454611540565b825550505050565b600090565b6115fa6115ed565b6116058184846115c8565b505050565b5b818110156116295761161e6000826115f2565b60018101905061160b565b5050565b601f82111561166e5761163f8161150e565b61164884611523565b81016020851015611657578190505b61166b61166385611523565b83018261160a565b50505b505050565b600082821c905092915050565b600061169160001984600802611673565b1980831691505092915050565b60006116aa8383611680565b9150826002028217905092915050565b6116c382611175565b67ffffffffffffffff8111156116dc576116db610dcf565b5b6116e68254611347565b6116f182828561162d565b600060209050601f8311600181146117245760008415611712578287015190505b61171c858261169e565b865550611784565b601f1984166117328661150e565b60005b8281101561175a57848901518255600182019150602085019450602081019050611735565b868310156117775784890151611773601f891682611680565b8355505b6001600288020188555050505b505050505050565b7f4d7573742073656e642065786163742062657420616d6f756e74000000000000600082015250565b60006117c2601a83611180565b91506117cd8261178c565b602082019050919050565b600060208201905081810360008301526117f1816117b5565b9050919050565b7f416c726561647920766f74656400000000000000000000000000000000000000600082015250565b600061182e600d83611180565b9150611839826117f8565b602082019050919050565b6000602082019050818103600083015261185d81611821565b9050919050565b7f42657420616c7265616479207265736f6c766564000000000000000000000000600082015250565b600061189a601483611180565b91506118a582611864565b602082019050919050565b600060208201905081810360008301526118c98161188d565b9050919050565b60006118db82610f84565b91506118e683610f84565b92508282019050808211156118fe576118fd61147f565b5b9291505056fea164736f6c634300081c000a",
  "linkReferences": {},
  "deployedLinkReferences": {}
}